:020000040800F2
:10000000D013002045010008391E00083B1E0008DF
:100010003F1E0008431E0008471E000800000000A5
:100020000000000000000000000000004B1E00085F
:100030004D1E0008000000004F1E0008511E000861
:100040005F0100085F0100085F0100085F01000810
:100050005F0100085F0100085F0100085F01000800
:100060005F0100085F0100085F0100085F010008F0
:100070005F0100085F0100085F0100085F010008E0
:100080005F0100085F0100085F0100085F010008D0
:100090005F0100085F0100085F0100085F010008C0
:1000A0005F0100085F0100085F0100085F010008B0
:1000B0005F0100085F010008314400085F0100088B
:1000C0005F0100085F0100085F0100085F01000890
:1000D0005F010008C148000827470008BD44000828
:1000E0005F0100085F0100085F0100085F01000870
:1000F0005F0100085F0100085F0100085F01000860
:100100005F0100085F0100085F0100085F0100084F
:100110005F0100085F0100085F0100085F0100083F
:100120005F0100085F0100085F0100085F0100082F
:10013000DFF80CD005F010FF00480047411D000813
:10014000D01300200648804706480047FEE7FEE738
:10015000FEE7FEE7FEE7FEE7FEE7FEE7FEE7FEE777
:1001600045020008310100080CB500200190009004
:100170006B48006840F480306949086000BF6848F7
:10018000006800F4003000900198401C0190009835
:1001900018B90198B0F5A06FF1D16148006810F46A
:1001A000003F02D00120009001E000200090009864
:1001B000012842D15B48006840F0100059490860AE
:1001C0000846006820F0030008600846006840F018
:1001D000020008605248406851494860084640683B
:1001E00048600846406840F48060486008464068BF
:1001F00020F47C1048600846406840F4E8104860ED
:100200000846006840F08070086000BF44480068FD
:1002100010F0007FFAD04248406820F003004049C7
:1002200048600846406840F00200486000BF3C4813
:10023000406800F00C000828F9D10CBD10B5FFF79C
:1002400093FF10BD10B53648006840F001003449F6
:10025000086008464068344908403149486008460B
:100260000068324908402E4908600846006820F4BA
:10027000802008600846406820F4FE0048604FF483
:100280001F008860FFF7DAFF4FF000602849086020
:1002900010BD10B5002100200022214B5B6803F047
:1002A0000C0121B1042906D0082928D107E0214BEF
:1002B000214C236027E01F4B1F4C236023E0184B89
:1002C0005B6803F47010164B5B6803F48032022302
:1002D00003EB904022B9194B4343174C23600DE0C8
:1002E0000F4B5B6813F4003F04D0144B4343124C94
:1002F000236003E00F4B43430F4C236003E00D4B9F
:100300000D4C236000BF00BF054B5B68C3F30313B4
:100310000B4CE15C084B1B68CB40074C236010BDC5
:1003200000100240002002400000FFF8FFFFF6FE30
:1003300008ED00E000127A000000002000093D00F6
:100340000400002031490143314A1160704770B503
:10035000002100230F22C4780CB32D4C246804F430
:10036000E064C4F5E064210AC1F10403CA404478A2
:1003700004FA03F18478144021430901254C0678DE
:10038000A155047804F01F050124AC4005786D11D7
:100390004FF0E02606EB8505C5F8004109E004783A
:1003A00004F01F050124AC401B4D0678761145F87A
:1003B000264070BD194A0A400243154B1B1F1A60A4
:1003C000704739B1124A121D12680243104B1B1DAF
:1003D0001A6006E00E4A121D126882430C4B1B1D68
:1003E0001A607047042808D14FF0E021096941F0F4
:1003F00004014FF0E022116107E04FF0E0210969AC
:1004000021F004014FF0E022116170470000FA056D
:100410000CED00E000E400E080E100E080FFFF1F61
:1004200010B50446CA48844208D10121042000F0D6
:1004300027FB0021042000F023FB46E0C54884424E
:1004400008D10121082000F01BFB0021082000F04A
:1004500017FB3AE0C048844208D10121102000F087
:100460000FFB0021102000F00BFB2EE0BB48844264
:1004700008D10121202000F003FB0021202000F002
:10048000FFFA22E0B648844208D10121402000F062
:10049000F7FA0021402000F0F3FA16E0B148844258
:1004A00008D10121802000F0EBFA0021802000F02B
:1004B000E7FA0AE0AC48844207D10121801500F038
:1004C000DFFA0021A01500F0DBFA10BD10B5012104
:1004D000084600F0D5FA0021012000F0D1FA10BD45
:1004E0002DE9F041024600250026002000230024CB
:1004F000002791F803C00CF00F0591F803C01CF021
:10050000100F03D091F802C04CEA050591F800C025
:10051000BCF1000F31D0146800202BE04FF0010C2B
:100520000CFA00F3B1F800C00CEA03069E4220D199
:1005300083004FF00F0C0CFA03F7BC4305FA03FCE1
:100540004CEA040491F803C0BCF1280F06D14FF027
:10055000010C0CFA00FCC2F814C00AE091F803C0C8
:10056000BCF1480F05D14FF0010C0CFA00FCC2F8A9
:1005700010C0401C0828D1D31460B1F800C0BCF1F1
:10058000FF0F34DD546800202EE000F1080C4FF01E
:10059000010808FA0CF3B1F800C00CEA03069E4209
:1005A00021D183004FF00F0C0CFA03F7BC4305FA7E
:1005B00003FC4CEA040491F803C0BCF1280F05D1F8
:1005C00000F1080C08FA0CF8C2F8148091F803C086
:1005D000BCF1480F07D100F1080C4FF0010808FAF0
:1005E0000CF8C2F81080401C0828CED35460BDE837
:1005F000F0814FF6FF710180022181700421C170EA
:1006000070470246002093680B4201D0012000E0B1
:10061000002070470146886880B27047024600207B
:10062000D3680B4201D0012000E000207047014652
:10063000C86880B2704701617047416170470AB174
:10064000016100E041617047C16070474FF4803242
:100650000A438261816182618269826970470246D0
:100660000020424B18684FF68073184040EA021091
:1006700008433E4B186070473D49C8617047F0B56C
:100680000A46002300240021002500F00046B6F1B0
:10069000004F02D1354EF16901E0344E7168C0F36C
:1006A000034583B200F44016B6F5401F08D121F08F
:1006B00070612E4E766826F070662C4F7E6012E0D8
:1006C00000F48016B6F5801F06D1032606FA05F45D
:1006D000A14341F0706106E0460D360103FA06F6CB
:1006E000B14341F0706122B1460D360103FA06F6BE
:1006F000314300F00046B6F1004F02D11B4EF161CC
:1007000001E01A4E7160F0BD30B500228B071C0F5E
:100710000F2303FA04F2154B08338C1053F82430DE
:100720009343124C08348D1044F8253023468C1026
:1007300053F824308C07240F00FA04F423430B4CA5
:1007400008348D1044F8253030BD0A4908607047E0
:1007500000080140000C014000100140001401405D
:1007600000180140001C0140002001400000014031
:1007700000002042DC002042DD48006840F001001B
:10078000DB49086008464068DA490840D8494860B3
:1007900008460068D8490840D549086008460068FE
:1007A00020F4802008600846406820F4FE0048607D
:1007B0004FF41F0088607047CD49096821F48031EB
:1007C000CB4A11601146096821F480211160B0F50F
:1007D000803F03D0B0F5802F0ED106E0C4490968F0
:1007E00041F48031C24A116007E0C149096841F40F
:1007F000A021BF4A116000E000BF00BF704710B5E4
:1008000001460022002300204A11012A02D1B84CDF
:10081000236806E0022A02D1B54C236A01E0B44CF9
:10082000636A01F01F02012494401C4201D00120A0
:1008300000E0002010BD38B5002000900024002505
:1008400000BF3120FFF7DBFF05460098401C0090F9
:100850000098B0F5A06F01D0002DF2D03120FFF745
:10086000CEFF08B1012400E00024204638BD014637
:1008700000209F4A106820F0F80040EAC100106094
:1008800070479E490860704702460020984B5868A0
:1008900020F47C1042EA01031843954B58607047DE
:1008A00096490866704701460020914A506820F03A
:1008B00003000843506070478D48406800F00C000A
:1008C0007047014600208A4A506820F0F000084333
:1008D0005060704701460020854A506820F4E0606F
:1008E00008435060704701460020814A506820F458
:1008F000605040EAC1005060704729B17C4A527A8A
:1009000002437B4B5A7204E0794A527A8243784B15
:100910005A7270477A490860704701460020744A4D
:10092000506820F440400843506070470021754AE9
:1009300011706F4A82F82010012802D0042808D1D3
:1009400003E001216F4A117004E005216D4A117026
:1009500000E000BF00BF70476B4908607047644902
:10096000096A0143624A1162704767494439086065
:10097000704730B500210022002400235C4D6D68D3
:1009800005F00C0121B1042905D0082923D105E087
:100990005E4D056022E05D4D05601FE0544D6D68C1
:1009A00005F47012524D6D6805F48034022505EB94
:1009B00092421CB9564D554305600BE04C4D6D6895
:1009C00015F4003F03D0524D5543056002E04F4DF2
:1009D0005543056002E04D4D056000BF00BF444D2A
:1009E0006D6805F0F00109094A4D6B5C0568DD4052
:1009F00045603F4D6D6805F4E061090A454D6B5C4B
:100A00004568DD4085603A4D6D6805F46051C90A5E
:100A1000404D6B5C4568DD40C560354D6D6805F443
:100A20004041890B3C4D6B5CC568B5FBF3F5056136
:100A300030BD29B12E4A526902432D4B5A6104E060
:100A40002B4A526982432A4B5A61704729B1284A7E
:100A500092690243264B9A6104E0254A92698243D7
:100A6000234B9A61704729B1214AD2690243204B36
:100A7000DA6104E01E4AD26982431D4BDA61704795
:100A800029B11B4AD2680243194BDA6004E0184AC4
:100A9000D2688243164BDA60704729B1144A126952
:100AA0000243134B1A6104E0114A12698243104B4E
:100AB0001A61704714494039086070470F49C8648B
:100AC00070470B49C87170470948406A40F0807010
:100AD00007494862704701460020054A92680A4269
:100AE00001D0012000E00020704701498872704762
:100AF000001002400000FFF8FFFFF6FE0000424237
:100B0000D8004242201002408004424200127A0083
:100B100000093D00140000202400002010B5044608
:100B2000FE48844208D10121C014FFF7A9FF00212B
:100B3000E014FFF7A5FFC4E0B4F1804F08D1012114
:100B40000846FFF7AAFF00210120FFF7A6FFB8E043
:100B5000F348844208D101210220FFF79EFF0021C3
:100B60000220FFF79AFFACE0EE48844208D1012151
:100B70000420FFF792FF00210420FFF78EFFA0E082
:100B8000E948844208D101210820FFF786FF0021AF
:100B90000820FFF782FF94E0E448844208D1012155
:100BA0001020FFF77AFF00211020FFF776FF88E082
:100BB000DF48844208D101212020FFF76EFF002189
:100BC0002020FFF76AFF7CE0DA48844208D1012147
:100BD0004014FFF755FF00216014FFF751FF70E04C
:100BE000D548844209D10121C804FFF749FF0021FB
:100BF0004FF40020FFF744FF63E0D048844209D15E
:100C000001210805FFF73CFF00214FF48010FFF79A
:100C100037FF56E0CA48844209D101214805FFF751
:100C20002FFF00214FF40010FFF72AFF49E0C548CD
:100C3000844208D101214020FFF72FFF00214020EE
:100C4000FFF72BFF3DE0C048844208D101218020FE
:100C5000FFF723FF00218020FFF71FFF31E0BB4893
:100C6000844208D101218015FFF717FF0021A0154C
:100C7000FFF713FF25E0B648844209D1012108049B
:100C8000FFF7FEFE00214FF48030FFF7F9FE18E079
:100C9000B048844209D101214804FFF7F1FE002148
:100CA0004FF40030FFF7ECFE0BE0AB48844208D174
:100CB00001218804FFF7E4FE00214FF48020FFF7B4
:100CC000DFFE10BD00220288944B98420ED0994B53
:100CD00098420BD0B0F1804F08D0914B984205D08C
:100CE000904B984202D0904B984204D14FF68F73AC
:100CF0001A404B881A438D4B984207D08C4B984230
:100D000004D04FF6FF431A40CB881A4302808B88E9
:100D100083850B880385814B98420BD0854B984285
:100D200008D08B4B984205D08A4B984202D08A4B10
:100D3000984201D10B7A038601238382704770B5F4
:100D4000002400220023058C4FF6FE7635400584F2
:100D5000028C8388048B4FF68F752C40B51E2C4077
:100D60000D882C43751E2A400D892A434D882A433D
:100D70006A4DA8420BD06F4DA84208D0744DA842CE
:100D800005D0744DA84202D0734DA84213D14FF63E
:100D9000F7752A404D892A434FF6FB752A408D8806
:100DA0002A434FF6FF652B404FF6FF552B408D89A8
:100DB0002B43CD892B4383800483CD888586028491
:100DC00070BD70B5002400220023058C4FF6EF762D
:100DD00035400584028C8388048B48F6FF752C40CF
:100DE0004FF6FF452C400D884FF6FF7606EA0525A5
:100DF0002C434FF6DF752A400D8906EA05152A4374
:100E00004D8806EA05152A43444DA84202D0494DB3
:100E1000A8421DD14FF67F752A404D894FF6FF76C7
:100E200006EA05152A434FF6BF752A408D8806EA63
:100E300005152A434FF6FF352B404FF2FF752B4027
:100E40008D8906EA85052B43CD8906EA85052B4366
:100E500083800483CD880587028470BD70B500242B
:100E600000220023058C4FF6FF6635400584028C76
:100E70008388848B4FF68F752C404FF6FC752C4081
:100E80000D882C434FF6FF552A400D894FF6FF760B
:100E900006EA05252A434D8806EA05252A431F4D03
:100EA000A84202D0234DA8421DD14FF2FF752A401F
:100EB0004D894FF6FF7606EA05252A434FF6FF35A2
:100EC0002A408D8806EA05252A434EF6FF752B40F9
:100ED0004DF6FF752B408D8906EA05152B43CD890C
:100EE00006EA05152B4383808483CD888587028499
:100EF00070BD70B5002200230024058C4EF6FF76ED
:100F000035400584038C8488828B48F6FF752A401F
:100F10004FF6FF452A400D8820E00000002C0140DC
:100F20000004004000080040000C00400010004099
:100F30000014004000340140004C014000500140CA
:100F40000054014000180040001C004000200040F8
:100F50000040014000440140004801404FF6FF7648
:100F600006EA05252A434DF6FF752B400D8906EA52
:100F700005352B434D8806EA05352B43FA4DA8422B
:100F800002D0FA4DA84208D14BF6FF752C408D894E
:100F90004FF6FF7606EA85152C4384808283CD8840
:100FA000A0F84050038470BD828B4FF2FF331A408B
:100FB0008283828B4FF6FF7303EA01231A438283F5
:100FC0007047F0B50C461546002200210026078C1C
:100FD0004EF6FF7C07EA0C070784828B018C4FF6E4
:100FE000FF7707EA043640F6FF473A404FF6FF77AF
:100FF00007EA05273A434FF6FF7707EA03373A43F4
:10100000D94FB8420ED0D94FB8420BD0B0F1804F73
:1010100008D0D74FB84205D0D64FB84202D0D64FED
:10102000B84206D14DF6FF77394046F48057394330
:1010300005E047F6FF57394044F48057394382832F
:101040000184F0BD828B4FF6F3731A408283828B4A
:101050000A4382837047F0B50C46154600220021F2
:101060000026078C4FF6FF6C07EA0C070784828B7B
:10107000018C4FF6FF7707EA04264FF60C773A40CB
:101080004FF6FF7707EA03172F433A43B64FB842AC
:101090000ED0B64FB8420BD0B0F1804F08D0B44F4D
:1010A000B84205D0B34FB84202D0B34FB84206D1D0
:1010B0004FF6FF57394046F48077394305E04FF249
:1010C000FF57394044F48077394382830184F0BD6F
:1010D000028B4FF2FF331A400283028B4FF6FF73ED
:1010E00003EA01231A4302837047F0B50C46154604
:1010F000002200210026078C4FF6EF7C07EA0C0740
:101100000784028B018C4FF6FF7707EA041640F63E
:10111000FF473A404FF6FF7707EA03373A434FF667
:10112000FF7707EA05273A438F4FB8420ED08F4F1B
:10113000B8420BD0B0F1804F08D08D4FB84205D0E7
:101140008C4FB84202D08C4FB84206D14FF6DF77B1
:10115000394046F01007394305E04FF65F773940D4
:1011600044F01007394302830184F0BD028B4FF62F
:10117000F3731A400283028B0A4302837047F0B56F
:101180000C46154600220021068C4FF6FE773E40A5
:101190000684028B018C4FF60C7632407E1C06EAE8
:1011A00003162E433243704EB0420ED06F4EB04203
:1011B0000BD0B0F1804F08D06D4EB04205D06D4ECF
:1011C000B04202D06C4EB04206D14FF6FD763140AF
:1011D00044F00106314305E04FF6F576314044F026
:1011E0000106314302830184F0BD70B505460C460B
:1011F0005D4885420ED05D4885420BD0B5F1804FE9
:1012000008D05B48854205D05A48854202D05A48EA
:10121000854200D100E000BF208850B92389A28810
:1012200061882846FFF7ABFFE1882846FFF79EFF5D
:1012300025E0208804280AD12389A28861882846CD
:10124000FFF753FFE1882846FFF742FF17E02088A9
:1012500008280AD12389A28861882846FFF7FBFE67
:10126000E1882846FFF7EEFE09E02389A28861881D
:101270002846FFF7A6FEE1882846FFF795FE70BDD9
:101280002DE9F04105460C4600260127608808B983
:10129000022600E00026A088012801D1022700E0F4
:1012A00001272088A0B92389A28861882846FFF7F2
:1012B00066FFE1882846FFF759FF23893A46314601
:1012C0002846FFF712FFE1882846FFF701FF13E0E9
:1012D0002389A28861882846FFF707FFE18828460E
:1012E000FFF7F6FE23893A4631462846FFF747FFC7
:1012F000E1882846FFF73AFFBDE8F0810A884B886D
:101300001A438B881A43CB881A430B891A434B899B
:101310001A438B891A43A0F8442070474FF6FF7197
:10132000818000210180C1804180017270470021CD
:10133000018041808180C180018141818181C181A1
:101340007047002101804180012181800021C180FE
:10135000018170470021018041808180C18001812D
:101360004181818170470000002C01400034014020
:101370000004004000080040000C004021B1028839
:1013800042F00102028004E002884FF6FE731A4028
:101390000280704731B1B0F8442042F40042A0F816
:1013A000442005E0B0F84420C2F30E02A0F8442027
:1013B00070471AB183890B43838102E083898B4391
:1013C000838170478182704741EA0203A0F8483068
:1013D00070471AB183890B43838102E083898B4371
:1013E0008381704701894FF6F8721140018170477F
:1013F0000A46002101894FF68F731940114301817C
:10140000704730B504460D4629462046FFF7F0FFE9
:10141000208940F00700208130BD2DE9F0410446CD
:101420000D4616461F46602D06D13B460122314629
:101430002046FFF75AFE05E03B4601223146204692
:10144000FFF79DFE29462046FFF7D2FF208940F096
:1014500007002081BDE8F08130B50C4600210189EC
:10146000C9B24FF6FF7505EA032515432543294305
:10147000018130BD2DE9F04105460E4617469846DC
:10148000002443463A4631462846FFF7E5FF2C89BB
:101490004FF6F870044044F007044FF68F70044094
:1014A00044F070042C81BDE8F081F0B504460D468F
:1014B00016461F463B46324629462046FFF7CCFFDC
:1014C000208940F480402081F0BD018582827047F0
:1014D0000A46002101884FF68F731940114301809D
:1014E0007047F0B50C4615461E4600210022002329
:1014F0000189028B038C4FF6F877394021434FF670
:10150000FC473A4040F201173A434FF6DD773B4043
:101510004FF6FF7707EA06172F433B43018102830B
:101520000384F0BD0A460021018B4FF68F731940EA
:101530001143018370470A460021018B48F6FF736F
:1015400019404FF6FF7303EA0223194301837047E2
:101550000A460021818B4FF68F7319401143818316
:1015600070470A460021818B48F6FF7319404FF6F9
:10157000FF7303EA022319438183704721B1028874
:1015800042F08002028004E002884FF67F731A4026
:101590000280704721B1828842F00402828004E018
:1015A00082884FF6FB731A408280704721B182888F
:1015B00042F00802828004E082884FF6F7731A40F6
:1015C0008280704721B1828842F00102828004E06B
:1015D00082884FF6FE731A40828070470A460021C7
:1015E000018B4FF6F77319401143018370470A4688
:1015F0000021018B4FF2FF7319404FF6FF7303EA8E
:1016000002231943018370470A460021818B4FF65C
:10161000F77319401143818370470A460021818B7B
:101620004FF2FF7319404FF6FF7303EA0223194389
:10163000818370470A460021018B4FF6FB731940E6
:101640001143018370470A460021018B4FF6FF3397
:1016500019404FF6FF7303EA0223194301837047D1
:101660000A460021818B4FF6FB7319401143818399
:1016700070470A460021818B4FF6FF3319404FF621
:10168000FF7303EA02231943818370470A4600214E
:10169000018B4FF67F7319401143018370470A464F
:1016A0000021018BC1F30E014FF6FF7303EA022301
:1016B0001943018370470A460021818B4FF67F73DF
:1016C00019401143818370470A460021818BC1F381
:1016D0000E014FF6FF7303EA02231943818370471B
:1016E0000A460021018C4FF6FD7319401143018415
:1016F00070470A460021018C4FF6F77319401143D9
:10170000018470470A460021018C4FF6DF731940AF
:101710004FF6FF7303EA02131943018470470A4628
:101720000021018C4FF67F7319404FF6FF7303EAD7
:1017300002131943018470470A460021018C4FF6B9
:10174000FF5319404FF6FF7303EA02231943018444
:1017500070470A460021018C4FF2FF7319404FF683
:10176000FF7303EA02231943018470470A460021EC
:10177000018C4DF6FF7319404FF6FF7303EA0233F5
:1017800019430184704730B5002301248C40A3B273
:10179000048C9C430484048C02FA01F5ADB22C4302
:1017A000048430BD30B5002304248C40A3B2048CE3
:1017B0009C430484048C02FA01F5ADB22C430484EA
:1017C00030BD70B5034600200024184618300125AE
:1017D0008D40ACB21D8CA5431D8409B1082909D1E7
:1017E00000EB6100056825F070050560056815438C
:1017F00005600EE00D1FC5F34E052844056825F46D
:10180000E045056005684FF6FF7606EA0226354397
:10181000056070BD21B1028842F00202028004E03E
:1018200002884FF6FD731A400280704721B102888A
:1018300042F00402028004E002884FF6FB731A4073
:101840000280704721B1828842F08002828004E0E9
:1018500082884FF67F731A408280704702884FF665
:10186000F7731A40028002880A4302807047828818
:101870004FF68F731A40828082880A4382807047B5
:1018800002894FF6F8731A40028102890A430281E5
:10189000704702894FF67F731A40028102890A431A
:1018A00002817047818470478185704781867047C7
:1018B0000187704781877047A0F840107047028801
:1018C0004FF6FF431A40028002880A4302807047A5
:1018D0000146888E70470146088F70470146888F01
:1018E00070470146B1F8400070470146888C704748
:1018F0000146088D704702460020138A0B4201D032
:10190000012000E000207047CA430282704730B5D2
:101910000246002000230024158A05EA0103958968
:1019200005EA010413B10CB1012000E0002030BD34
:10193000CA4302827047000010B50446FB48844247
:1019400009D101218803FFF79BF800214FF4804063
:10195000FFF796F832E0F648844209D101214804A5
:10196000FFF79BF800214FF40030FFF796F825E0D1
:10197000F048844209D101218804FFF78EF8002144
:101980004FF48020FFF789F818E0EB48844209D132
:101990000121C804FFF781F800214FF40020FFF770
:1019A0007CF80BE0E548844208D101210805FFF7E7
:1019B00074F800214FF48010FFF76FF810BD2DE987
:1019C000F04786B005460E460024A24600BFA14659
:1019D0000027B08900B100BF2F462C8A4CF6FF705B
:1019E0000440F08804432C82AC894EF6F310044086
:1019F000B08831890843718908430443AC81AC8ABB
:101A00004FF6FF400440B0890443AC8201A8FEF7C2
:101A1000B0FFC648874202D1DDF810A001E0DDF832
:101A20000CA0A88910F4004F08D00AEBCA0000EB04
:101A30000A1031684900B0FBF1F807E00AEBCA0070
:101A400000EB0A1031688900B0FBF1F86420B8FBA4
:101A5000F0F004012009642101FB1089A88910F429
:101A6000004F08D0322000EBC900B0FBF1F000F0CD
:101A70000700044308E0322000EB09106421B0FBAA
:101A8000F1F000F00F0004432C8106B0BDE8F087B0
:101A90004FF41651016000218180C18001810C2129
:101AA000418100218181704710B502460020108AD3
:101AB0004FF2FF0318400B884C8823438C88234344
:101AC000CC8823431843108210BD0021018041803F
:101AD0008180C180704721B1828942F400528281A5
:101AE00004E082894DF6FF731A4082817047F0B599
:101AF00003460024002600250020A1F510676A3F58
:101B000000D100BF1846C1F3421401F01F0601279F
:101B100007FA06F5012C01D10C3004E0022C01D1AA
:101B2000103000E014301AB107682F43076002E05C
:101B30000768AF430760F0BD1AB1838A0B43838205
:101B400002E0838A8B4383827047028A4FF6F073E8
:101B50001A400282028A0A430282704782894FF247
:101B6000FF731A40828182890A438281704721B1C2
:101B7000828942F00202828104E082894FF6FD737D
:101B80001A4082817047028A4FF6DF731A40028240
:101B9000028A0A430282704721B1028A42F48042DB
:101BA000028204E0028A4BF6FF731A4002827047F9
:101BB000C1F308028280704701468888C0F308009C
:101BC0007047818941F0010181817047028BD2B257
:101BD0000283028B42EA012202837047028B02F4E5
:101BE0007F420283028B0A430283704721B1828ABB
:101BF00042F02002828204E0828A4FF6DF731A40AC
:101C00008282704721B1828A42F01002828204E00F
:101C1000828A4FF6EF731A408282704721B1828A1E
:101C200042F00802828204E0828A4FF6F7731A407B
:101C30008282704721B1828942F40042828103E0AE
:101C40008289C2F30E028281704721B1828A42F4F6
:101C50000062828204E0828A4FF2FF731A4082821D
:101C60007047828A4FF6FB731A408282828A0A4347
:101C70008282704721B1828A42F00202828204E0AD
:101C8000828A4FF6FD731A40828270470246002016
:101C9000B1F5007F00D100BF13880B4201D00120B5
:101CA00000E00020704701F40072B2F5007F00D11F
:101CB00000BFCA430280704770B50246002400236B
:101CC00000250020A1F510666A3E00D100BFC1F3D7
:101CD000421501F01F03012606FA03F3012D02D17C
:101CE0009689334006E0022D02D1168A334001E086
:101CF000968A33400C12012606FA04F41688344002
:101D000013B10CB1012000E0002070BD10B500221D
:101D10000023A1F510646A3C00D100BF0A1201241F
:101D20009440A3B2DC43048010BD000000380140A1
:101D30000044004000480040004C0040005000407B
:101D400002F00EFB00F0C4FF4FF4E13002F074FC2F
:101D500000F0D2FF00F041FE4FF480711E48FEF704
:101D60006CFC07E01DA11E4803F035FC10B102F029
:101D7000CDFC00E0F6E700BF1AA000F05CFE02F028
:101D800091FA1AA000F057FE4FF4165002F0C5FB6E
:101D900019A000F050FE02F084FF1BA000F04BFEE3
:101DA0004FF4165002F008FD1BA000F044FE01F0B5
:101DB0001EFE02F041F91CA000F03DFE0AE002F018
:101DC00046FF03F0F5F91B48007818B903F03AF91B
:101DD00002F09CFCF3E70000000C014043530000BC
:101DE000C4040020C4E3BAC3000000004C6F636B5E
:101DF0005F46696E697368005573617274335F463C
:101E0000696E69736800000046696E6765725F46B7
:101E1000696E69736800000055617274315F4669CC
:101E20006E6973680000000047534D5F46696E6934
:101E30007368000032010020704700BFFEE700BF5A
:101E4000FEE700BFFEE700BFFEE770477047704740
:101E50007047000008B501210420FEF7F7FD40207F
:101E6000ADF8000028208DF8030003208DF8020053
:101E70006946F748FEF734FB08BD00BFF5490988FD
:101E800011F0400FFAD0F349091D0880704710B5D2
:101E9000EF20FFF7F2FF0120FFF7EFFF10BD10B5B5
:101EA000ED490968080EFFF7E8FFEB480068C0F34A
:101EB0000740FFF7E2FFE8480088C0F30720FFF77C
:101EC000DCFFE5490878FFF7D8FF10BD10B50446E0
:101ED0002046FFF7D2FF10BD10B50446C4F307201B
:101EE000FFF7CBFFE0B2FFF7C8FF10BD10B5044607
:101EF0002046FFF7C2FF10BD10B504462012FFF7C1
:101F0000BCFFE0B2FFF7B9FF10BD7CB50546EF207E
:101F10008DF8000001208DF80100CF480068000E08
:101F20008DF80200CC480068000C8DF80300CA4808
:101F30000088000A8DF80400C74800788DF8050075
:101F400007208DF8060000208DF80700C34908809F
:101F500012E0012002F040FAC048008810F4004F5F
:101F60000AD00020BD4908806946BD4803F033FB14
:101F700004460CB120467CBD681E80B20500E8D145
:101F800000BFF8E770B5FFF782FFFFF788FF012079
:101F9000FFF79CFF0320FFF79FFF0120FFF7A6FF3D
:101FA00005263046FFF7A8FF4FF4FA60FFF7ADFFB4
:101FB00005460DB16C7A00E0FF24204670BD2DE986
:101FC000F0410546FFF763FFFFF769FF0120FFF7C8
:101FD0007DFF0420FFF780FF0220FFF787FF2846E0
:101FE000FFF74BFFEF1D3846FFF786FF4FF4FA600F
:101FF000FFF78BFF06460EB1747A00E0FF242046FF
:10200000BDE8F08170B5FFF742FFFFF748FF012000
:10201000FFF75CFF0320FFF75FFF0320FFF766FF7A
:1020200007263046FFF768FF4FF4FA60FFF76DFFB1
:1020300005460DB16C7A00E0FF24204670BD2DE905
:10204000F04781460D4616461F46FFF720FFFFF773
:1020500026FF0120FFF73AFF0820FFF73DFF04208D
:10206000FFF744FF4846FFF708FF2812FFF705FF78
:10207000E8B2FFF702FF3012FFF7FFFEF0B2FFF702
:10208000FCFE09F10D0000EB2520E9B2084400EB4D
:102090002620F1B200EB010A5046FFF72DFF4FF466
:1020A000FA60FFF732FF044664B194F80980E07AE1
:1020B000A17A00EB01203880607B217B00EB0120BE
:1020C000788001E04FF0FF084046BDE8F08770B52A
:1020D000FFF7DDFEFFF7E3FE0120FFF7F7FE032029
:1020E000FFF7FAFE0520FFF701FF09263046FFF74C
:1020F00003FF4FF4FA60FFF708FF05460DB16C7A55
:1021000000E0FF24204670BD2DE9F04106460C4654
:10211000FFF7BDFEFFF7C3FE0120FFF7D7FE062045
:10212000FFF7DAFE0620FFF7E1FE3046FFF7A5FED7
:102130002012FFF7A2FEE0B2FFF79FFE06F10D00AE
:1021400000EB2420E1B200EB01084046FFF7D4FE8B
:102150004FF4FA60FFF7D9FE07460FB17D7A00E031
:10216000FF252846BDE8F0812DE9F04104460D46E3
:10217000FFF78DFEFFF793FE0120FFF7A7FE072074
:10218000FFF7AAFE0C20FFF7B1FE2012FFF775FE45
:10219000E0B2FFF772FE2812FFF76FFEE8B2FFF71A
:1021A0006CFE142000EB2420E1B2084400EB252053
:1021B000E9B200EB01084046FFF79EFE4FF4FA60DB
:1021C000FFF7A3FE07460FB17E7A00E0FF263046F8
:1021D000BDE8F08170B5FFF75AFEFFF760FE012001
:1021E000FFF774FE0320FFF777FE0D20FFF77EFE5A
:1021F00011263046FFF780FE4FF4FA60FFF785FEA8
:1022000005460DB16C7A00E0FF24204670BD014602
:10221000212978D2DFE801F0111315171954565807
:102220005A5C5E60777777776264777777667777DF
:10223000686A6C6F7177777375000AA065E00AA011
:1022400063E00DA061E011A05FE015A05DE000007B
:102250000008014000480040280000202C01002018
:10226000A40100204F4B0000CAFDBEDDB0FCBDD371
:10227000CAD5B4EDCEF30000B4ABB8D0C6F7C9CF21
:10228000C3BBD3D0CAD6D6B800000000C2BCC8EBCE
:10229000D6B8CEC6CDBCCFF1CAA7B0DC00000000D6
:1022A000D6B8CEC6CDBCCFF1CCABB8C9A1A2CCAB11
:1022B000B5ADB6F8C9FAB2BBB3C9CCD8D5F70000F2
:1022C000ADA022E0B4A020E0BAA01EE0C7A01CE0B0
:1022D000C9A01AE0CCA018E0CFA000BFD7A014E09E
:1022E000DAA012E0DDA010E0E5A00EE0E8A00CE02E
:1022F000EAA00AE007E0EDA007E0F1A005E0F5A004
:1023000003E0F7A001E0F9A000BF00BF70472DE98E
:10231000F04706460D46FFF7BAFDFFF7C0FD012066
:10232000FFF7D4FD0520FFF7D7FD0E20FFF7DEFDF8
:102330003046FFF7A2FD2846FFF79FFD701900F118
:1023400014084046FFF7D8FD4FF4FA60FFF7DDFDB3
:1023500007460FB17C7A00E0FF241CB9E8A000F02A
:10236000BFFB07E02046FFF752FF81464946E9A040
:1023700000F0B6FB2046BDE8F0872DE9F0410546A8
:10238000FFF785FDFFF78BFD0120FFF79FFD032081
:10239000FFF7A2FD0F20FFF7A9FD13273846FFF72F
:1023A000ABFD4FF47A70FFF7B0FD0446BCB1667A1E
:1023B000E07BA17B00EB01202880607CA870A07CE2
:1023C0000006E17C00EB0140217D00EB0120617DF6
:1023D00008446860E07D2872607E687200E0FF2635
:1023E000A6B92988CDA000F07BFBA978D1A000F088
:1023F00077FBD4A0696800F073FB687A4FF416523B
:1024000000FB02F1D2A000F06BFB07E03046FFF7C3
:10241000FEFE80464146BFA000F062FB3046BDE8AC
:10242000F0812DE9F0410446FFF731FDFFF737FD5C
:102430000120FFF74BFD0720FFF74EFD1520FFF7AA
:1024400055FD200EFFF719FDC4F30740FFF715FDFA
:10245000C4F30720FFF711FDE0B2FFF70EFD1D20CA
:1024600000EB1460C4F307410844C4F30721084497
:10247000E1B247183846FFF73FFDB84804604FF413
:10248000FA60FFF742FD06460EB1757A00E0FF25BF
:10249000B24804601DB9B2A000F022FB07E0284654
:1024A000FFF7B5FE804641469AA000F019FB28468A
:1024B000BDE8F0812DE9F04781460E46FFF7E7FCC5
:1024C000FFF7EDFC0120FFF701FD2420FFF704FDDD
:1024D0001820FFF70BFD4846FFF7CFFC002407E06C
:1024E000305DFFF7CAFC305D384487B2601CC4B26F
:1024F000202CF5DB09F13D00384487B23846FFF760
:10250000FBFC4FF4FA60FFF700FD054615B195F8A6
:10251000098001E04FF0FF084046BDE8F0872DE953
:10252000F04707468846FFF7B2FCFFF7B8FC0120EA
:10253000FFF7CCFC0420FFF7CFFC1920FFF7D6FCF7
:102540003846FFF79AFC07F11E094846FFF7D4FC0E
:102550004FF4FA60FFF7D9FC064666B1757A00249D
:1025600006E004F10A00305C08F80400601CC4B204
:10257000202CF6DBFFE0FDE0D6B8CEC6CDBCCFF117
:10258000CCABCAAAA1A2CCABBAFDB6F8C9FAB2BB11
:10259000B3C9CCD8D5F70000D6B8CEC6CDBCCFF1E4
:1025A000CCABC2D2B6F8C9FAB2BBB3C9CCD8D5F756
:1025B00000000000D6B8CEC6CDBCCFF1D5FDB3A388
:1025C000A3ACB5ABCCD8D5F7B5E3CCABC9D9A3A8F0
:1025D000BBF2C3E6BBFDCCABD0A1A3A9B6F8C9FA48
:1025E000B2BBB3C9CCD8D5F700000000D6B8CEC670
:1025F000B2BBC6A5C5E40000C3BBCBD1CBF7B5BD0C
:10260000D6B8CEC600000000CCD8D5F7BACFB2A25B
:10261000CAA7B0DC00000000B7C3CECAD6B8CEC689
:10262000BFE2CAB1B5D8D6B7D0F2BAC5B3ACB3F62B
:10263000D6B8CEC6BFE2B7B6CEA70000C9BEB3FDBE
:10264000C4A3B0E5CAA7B0DC00000000C7E5BFD551
:10265000D6B8CEC6BFE2CAA7B0DC0000BBBAB3E5AD
:10266000C7F8C4DAC3BBD3D0D3D0D0A7D4ADCABCCB
:10267000CDBCB6F8C9FAB2BBB3C9CDBCCFF100002E
:10268000B6C1D0B420464C41534820B3F6B4ED0057
:10269000CEB4B6A8D2E5B4EDCEF30000CEDED0A71E
:1026A000BCC4B4E6C6F7BAC500000000BCC4B4E6BA
:1026B000C6F7C9E8B6A8C4DAC8DDB4EDCEF30000A9
:1026C000BCC7CAC2B1BED2B3C2EBD6B8B6A8B4EDCD
:1026D000CEF30000D6B8CEC6BFE2C2FA00000000BA
:1026E000B5D8D6B7B4EDCEF300000000C4A3BFE95F
:1026F000B7B5BBD8C8B7C8CFC2EBD3D0CEF30000B4
:102700000D0AC9E8D6C3B2CECAFDB3C9B9A6A3A102
:10271000000000000D0A2573000000000D0AC4A38C
:10272000BFE9D7EEB4F3D6B8CEC6C8DDC1BF3D25EC
:10273000640000000D0AB6D4B1C8B5C8BCB63D25CA
:10274000640000000D0AB5D8D6B73D25780000001A
:102750000D0AB2A8CCD8C2CA3D25640028000020CA
:102760000D0AC9E8D6C3B5D8D6B7B3C9B9A6A3A1CF
:1027700000000000FF252846BDE8F0872DE9F0475E
:1027800081460D4616461F46FFF781FBFFF787FB84
:102790000120FFF79BFB0820FFF79EFB1B20FFF7A4
:1027A000A5FB4846FFF769FB2812FFF766FBE8B276
:1027B000FFF763FB3012FFF760FBF0B2FFF75DFB42
:1027C00009F1240000EB2520E9B2084400EB2620A3
:1027D000F1B200EB010A5046FFF78EFB4FF4FA60AE
:1027E000FFF793FB044664B194F80980E07AA17A7C
:1027F00000EB01203880607B217B00EB012078809A
:1028000001E04FF0FF084046BDE8F0872DE9F041B8
:102810000646FFF73CFBFFF742FB0120FFF756FBA4
:102820000320FFF759FB1D20FFF760FB21273846E7
:10283000FFF762FB4FF4FA60FFF767FB044634B121
:10284000657AE07AA17A00EB0120308000E0FF2574
:102850003DB9E07AA27A00EB022125A000F040F910
:1028600007E02846FFF7D3FC8046414624A000F04D
:1028700037F92846BDE8F08110B50446FFF707FB9D
:10288000FFF70DFB0120FFF7F8FA0020FFF7F5FA3C
:102890000020FFF7F2FA4FF4967001F09DFD194801
:1028A000008810F4004F21D017480078EF281AD183
:1028B00015484078012816D113488079072812D18D
:1028C0001148807800061049C97800EB01400E4994
:1028D000097900EB01200C49497908442060002067
:1028E0000849088010BD0020064908800120F9E74A
:1028F000D3D0D0A7D6B8CEC6B8F6CAFD3D25640061
:10290000257300002C010020A401002070B50446AE
:102910000D462A462146B84801F0DCFE70BD10B5D0
:102920004FF48061B54802F03FFE0020B4490860D2
:1029300010BD002107E0002100E0491C42F6E062E2
:102940009142FAD3401E0028F5D170472DE9F0419D
:1029500005460E4614461BE04FF48061A74802F07E
:1029600023FE0020A6490860284602F050FE0746D4
:1029700039462846FFF7CAFF2046FFF7DAFF3146FF
:102980009E4802F028FE00B103E06420FFF7D1FF6B
:10299000E2E700BFBDE8F08108B501210820FEF79D
:1029A00055F81020ADF8000003208DF8020010202B
:1029B0008DF8030069469348FDF792FD1021914878
:1029C000FDF73BFE6420FFF7B4FF10218D48FDF7B3
:1029D00032FE6420FFF7ADFF08BD10B5FFF7DCFF46
:1029E0004FF47A7288A189A0FFF7B0FF4FF4FA6222
:1029F00085A188A0FFF7AAFF4FF47A7282A188A070
:102A0000FFF7A4FF4FF47A727FA189A0FFF79EFF22
:102A100040F698027CA190A0FFF798FF40F698023C
:102A200079A191A0FFF792FF4FF47A7276A194A05A
:102A3000FFF78CFF10BD2DE9F0418AB00646304605
:102A400002F0E5FD0746FFF76AFF142103A802F034
:102A5000ABFD01A9384602F0FCFC8EA103A802F0F0
:102A6000AEFD01A903A802F0AAFD8EA103A802F001
:102A7000A6FD03A802F0CBFD8046414603A8FFF760
:102A800045FF002409E06420FFF753FF86A15B485F
:102A900002F0A1FD00B102E0641C282CF3DB00BFB2
:102AA000FFF73DFF002413E0304602F0B0FD804602
:102AB00041463046FFF72AFF4FF4FA70FFF739FF1F
:102AC0007AA14E4802F087FD08B1012502E0641C9E
:102AD0000A2CE9DB00BF002528460AB0BDE8F081DA
:102AE0000FB410B59AB01DA8009001A8009A1C99C7
:102AF00003F058FB04460020009001A8FFF79BFF5D
:102B000020461AB010BC5DF814FB2DE9F0418AB0E4
:102B100006460D460027FFF702FF142103A802F026
:102B200043FD01A9284602F094FC5AA103A802F033
:102B300046FD01A903A802F042FD5AA103A802F034
:102B40003EFD03A802F063FD8046414603A8FFF75F
:102B5000DDFE002409E06420FFF7EBFE52A12748C8
:102B600002F039FD00B102E0641C282CF3DB00BF49
:102B7000FFF7D5FE002413E0304602F048FD804602
:102B800041463046FFF7C2FE4FF4FA70FFF7D1FE20
:102B900046A11A4802F01FFD08B1012702E0641C9B
:102BA0000A2CE9DB00BF38460AB0BDE8F08110B559
:102BB000102140A0FFF7AAFE002409E06420FFF7DF
:102BC000B8FE39A10D4802F006FD00B102E0641C18
:102BD000282CF3DB00BF07213BA0FFF797FE08E09E
:102BE00032A1064802F0F7FC00B103E06420FFF7D1
:102BF000A0FEF5E700BF10BD00440040C404002063
:102C000034010020000C01404F4B000041540D0ADC
:102C10000000000041542B5253540D0A00000000E4
:102C200041542B43574D4F44453D320D0A0000009F
:102C300041542B43575341503D226573702D7465A9
:102C40007374222C226C6C6C6C6C6C6C6C222C314E
:102C50002C330D0A0000000041542B4349504D55C0
:102C6000583D310D0A00000041542B434950534553
:102C7000525645523D312C383038300D0A00000094
:102C800041542B43495053544F3D323838300D0A8C
:102C90000000000041542B43495053454E443D3001
:102CA0002C0000000D0A00003E00000053454E4479
:102CB000204F4B0041542B43495053454E443D3027
:102CC0002C350D0A0000000048656C6C6F0D0A0081
:102CD00008B501210820FDF7B9FE4FF47070ADF87A
:102CE000000003208DF8020010208DF803006946D3
:102CF0006048FDF7F5FB08BD10B54FF400715D4865
:102D0000FDF799FC4FF480715A48FDF794FC80213F
:102D10005848FDF790FC40215648FDF78CFC10BD4B
:102D200010B555A1564802F056FC38B14FF4007169
:102D30005048FDF782FC01205249087052A15048CA
:102D400002F049FC38B14FF480714A48FDF775FC38
:102D500001204F4908704FA1494802F03CFC30B1B6
:102D600080214448FDF769FC01204C4908704CA1C2
:102D7000434802F030FC30B140213E48FDF75DFC95
:102D800001204949087049A13D4802F024FC38B1AE
:102D90004FF400713748FDF74EFC002039490870A8
:102DA00044A1374802F017FC38B14FF48071314824
:102DB000FDF741FC00203649087040A1304802F080
:102DC0000AFC30B180212B48FDF735FC0020334947
:102DD00008703CA12A4802F0FEFB30B14021254892
:102DE000FDF729FC00203049087038A1244802F082
:102DF000F2FB08B1FFF780FF36A1214802F0EBFBA0
:102E0000C8B13648364908604FF480711948FDF75B
:102E100014FC80211748FDF70EFC00BF3048016804
:102E20000068401E2E4A10600029F7D14FF48071CF
:102E30001048FDF700FC2BA1114802F0CCFBC0B1FB
:102E400026482749086080210A48FDF7F6FB4FF421
:102E500080710848FDF7EFFB00BF2148016800685A
:102E6000401E1F4A10600029F7D180210148FDF75C
:102E7000E2FB10BD000C01404C4544313100000024
:102E8000C40800202C0000204C45443231000000D2
:102E90002F0000204C454433310000002D0000205D
:102EA0004C454434310000002E0000204C45443194
:102EB000300000004C454432300000004C454433A3
:102EC000300000004C454434300000004C45445F65
:102ED0004F4646003132333435360000A0252600F7
:102EE000300000204B4559300000000008B501219A
:102EF0000420FDF7ABFD0220ADF8000010208DF896
:102F0000030003208DF8020069465048FDF7E8FAF7
:102F100008BD10B5FFF7EAFF02214C48FDF78BFB17
:102F200010BD08B50220ADF8000048208DF8030060
:102F300069464648FDF7D4FA08BD08B50220ADF849
:102F4000000010208DF8030003208DF80200694670
:102F50003E48FDF7C5FA08BD70B50025002424E001
:102F600000BF02213948FDF74CFB0028F9D028208A
:102F700001F00FFA02213548FDF743FB01280DD17E
:102F800000BF02213148FDF73CFB0128F9D0C4F114
:102F9000070101208840C0B2054304E0C4F10701E5
:102FA000012088408543601CC4B2082CD8DB284629
:102FB00070BD10B50446FFF7C0FF02212348FDF79E
:102FC0003CFB122001F008FA02212048FDF733FBF8
:102FD0001E2001F0DEF9FFF7A4FF02211B48FDF7D8
:102FE00010FB70BB00BF02211848FDF70AFB002848
:102FF000F9D000BF02211548FDF703FB0128F9D0E5
:10300000FFF7AAFF2070FFF7A7FF6070FFF7A4FF8C
:10301000A070FFF7A1FFE070FFF79EFF2071FFF7A0
:103020008CFF02210948FDF706FB207861780844EF
:10303000A1780844E17808442179884202D101202E
:1030400010BD01E00020FBE70020F9E70008014087
:1030500010B5F848007808B1012010BD00F05AFA08
:10306000142001F0B9F9D021EC2000F082FBF249E4
:10307000087008460078582805D108460178EFA066
:10308000FFF72EFD01E00020E7E7F14B1822882131
:10309000EC2000F08EFBB322F421EC2000F0B9FB11
:1030A0001422F521EC2000F0B4FB0120E149087066
:1030B00000BFD2E71CB56B460622F721EC2000F0DA
:1030C00078FB9DF8000000039DF8011040EA011014
:1030D0009DF8021040EA1110DE4908609DF80300D7
:1030E00000039DF8041040EA01109DF8051040EA25
:1030F0001110D94908601CBD30B50146CC10D44D23
:103100002D88A4EB4504D24DB5F902506C43E21270
:10311000CF4C2488C4EB211464432413CC4DB5F95F
:1031200004506C43A313D418C94DAC612C46A46958
:1031300004EB84048034201230BD2DE9F14F82B0BD
:10314000C3488069C1174FF4FA33C41A61F100050E
:10315000A4FB041005FB040004FB0503BC48B0F904
:103160001000C217A1FB008A03FB00A001FB0209AB
:10317000B748B0F90E00C117A0FB042301FB0431CE
:1031800000FB0510400440EAD230510411EB08085E
:1031900040EB0909AE48B0F90C0018F1000849EB02
:1031A000C009A4FB043005FB040004FB050CA8487F
:1031B000B0F90A004FEAE072A3FB001A0CFB00A072
:1031C00003FB02024FEA112040EA02604FEA22228A
:1031D0009F49B1F908104FEAE17C2346A1FB03BEE9
:1031E0000CFB04E301FB05314FEA013141EA1B51BD
:1031F0004FEA0B3384461CEB030442EB0105221C0F
:1032000045F500409249C9880023A2FB01AC00FBB0
:1032100001C002FB03004410C517002184EA01002D
:103220006940084301D1BDE8FE8F0298C0F58010C7
:10323000C7170646F80740EA5600F107B1EB080148
:1032400060EB090040F635434FF0000CA1FB032A68
:1032500000FB03A001FB0C00CDE9002022462B4619
:10326000DDE9000102F06CF906460F467848B0F936
:103270001600C217710B41EAC74C7B13A0FB0C1A56
:1032800002FB0CA200FB0322700B40EAC7404FEA8E
:10329000673CA1FB003A02FB00A001FB0C01580EA9
:1032A00040EAC1144D166A48B0F91400C117A0FBDA
:1032B000062301FB063100FB0711D00C40EA413820
:1032C0004FEAE149311947EB050011EB080140EBEA
:1032D0000900020642EA11205D49B1F91210090104
:1032E000461830469FE72DE9F05F044689460021E5
:1032F0000D460E468A465949594A127851F822001D
:10330000002102F09DFC13D15449554A12782068DF
:1033100041F822002068C9F8000051480078401C9C
:10332000C0B24F490870052853DB0020087050E0F8
:103330004B48007850B14A4A1278521E474B53F816
:103340002210206802F0F5F9834605E0434A11692E
:10335000206802F0EEF98346584602F02EFC21F078
:10336000004107464FF020423E4B02F039FC0FD29D
:103370003A493B4A1278206841F8220038480078E0
:10338000401CC0B236490870052801DB00200870D7
:103390004FF0000A0FE0314951F82A0002F00DFC0D
:1033A00007462A46334602F040FA05460E460AF121
:1033B000010000F0FF0ABAF1050FECDB00222A4BF6
:1033C0002846314602F04AFB074602F01DFCC9F8C8
:1033D0000000BDE8F09F2DE9FF5F82460021DAF88A
:1033E000000002F037FC4DD22048DAF8001002F05D
:1033F000DCF9834602F0E1FB1D4A1E4BCDE90001DA
:1034000003F002FE064600221B4B02F0AFFA4FF01B
:10341000C0421A4BCDE9020102F0AEFA80464FF0ED
:103420000042174B02F01AFB044602F0EDFB04B019
:10343000BDE8F09F3500002034000020424D50329E
:1034400038302049442049533A20307825580A0022
:1034500088010020380000203C000020740100207A
:10346000400000209999B93F00001440CDEC7D4404
:1034700028610C878A5AC83F0000F03F66A272405C
:10348000BE9F7A3F002004B0BDE8F09F2DE9F05FB9
:10349000044689469246FFF70DFE18480068FFF77C
:1034A0002BFE834602F052FB07460022144B02F02B
:1034B000D5FA054602F0A8FB1249086012480068D8
:1034C000FFF73BFE834602F052FB054600220F4BFE
:1034D00002F0C4FA074602F097FB0D490860214646
:1034E0000B48FFF700FF07480068C9F800002046B6
:1034F000FFF771FFCAF80000BDE8F09F3C00002014
:103500000000594044000020380000200000D9404D
:103510004800002008B501211020FDF797FA4FF46C
:10352000C050ADF8000010208DF8030003208DF886
:1035300002006946D348FCF7D3FF0120D249086056
:10354000D249C1F8AC0108BD10B5CE48406820F49E
:103550007040CC4948600846406840F4405048609C
:103560000120CB490860C949C1F8B0014FF00400FF
:1035700000F00FFF0020C64908604FF0040000F083
:1035800008FF0020C149C1F8B00110BD10B5BD4809
:10359000406820F47040BB4948600846406840F4E9
:1035A000405048600020B8490860B849C1F8AC01F3
:1035B0004FF0040000F0EDFE0120B3490860B3496C
:1035C000C1F8AC014FF0040000F0E3FE10BD10B5EF
:1035D0000024AC48406820F47040AA49486008467E
:1035E000406840F4004048600120A949086000F0AC
:1035F000D0FE0120A549C1F8B00100F0CAFE07E0E5
:10360000601CC4B2FA2C03DDFFF7C0FF012010BD1F
:10361000A04800680028F3D19B49086000BFF6E786
:1036200010B50020984908609648406820F4704022
:10363000944948600846406840F4405048604FF064
:1036400000009249C1F8AC014FF0020000F0A1FE69
:1036500001208D4908604FF0020000F09AFE002022
:103660008A49C1F8B00110BD10B500208649086034
:103670008448406820F470408249486008464068A9
:1036800040F4405048604FF001008049C1F8AC015F
:103690004FF0020000F07DFE01207B4908604FF0F2
:1036A000020000F076FE00207849C1F8B00110BD9C
:1036B00070B504467348406820F470407149486012
:1036C0000846406840F44050486000206E49086059
:1036D00005461AE0E0096E4908604FEA44604FEA87
:1036E00010644FF0020000F054FE01206749C1F859
:1036F000B001022000F04DFE0020634908604FF049
:10370000020000F046FE681CC5B2082DE2DB70BD69
:1037100070B5054600245B48406820F47040594964
:1037200048600846406840F400404860002616E0C3
:103730000020554908604FF0020000F02AFE0120E9
:103740005249C1F8B0016006040E5248006808B141
:10375000601CC4B2012000F01CFE701CC6B2082E12
:10376000E6DB15B9FFF780FF01E0FFF759FF2046C0
:1037700070BD70B504460D460026FFF7E5FE2046F5
:10378000FFF796FFFFF723FF2846FFF791FFFFF7AC
:103790001EFFFFF7D9FE44F00100FFF789FFFFF796
:1037A00016FF0020FFF7B4FF0646FFF7EFFE304696
:1037B00070BD2DE9F0410746884615461E46002497
:1037C000FFF7C2FE3846FFF773FFFFF700FF4046E2
:1037D000FFF76EFFFFF7FBFEFFF7B6FE47F00100B5
:1037E000FFF766FFFFF7F3FE00BF0CE0681EA04284
:1037F00004D10020FFF78CFF305503E00120FFF7D4
:1038000087FF3055641CAC42F0DBFFF7BFFEBDE81C
:10381000F08170B506460C461546FFF795FE30461A
:10382000FFF746FFFFF7D3FE2046FFF741FFFFF704
:10383000CEFE2846FFF73CFFFFF7C9FEFFF7A6FEC6
:1038400070BD2DE9F04180460D4616461F46002406
:10385000FFF77AFE4046FFF72BFFFFF7B8FE28463A
:10386000FFF726FFFFF7B3FE00BF05E0385DFFF767
:103870001FFFFFF7ACFE641CB442F7DBFFF786FEC8
:10388000BDE8F08100100140B00122420000224258
:10389000AC0122422C01224270B504460D462A4654
:1038A0002146F94800F0D9FF70BD70B504460D46B9
:1038B00029462046FFF729F970BD10B50446214678
:1038C000F148FEF775F910BD2DE9F04706460F46A1
:1038D00014464FF00108052524E04FF48061EB48C1
:1038E00001F062FE0020EA490860304601F08FFED8
:1038F000814649463046FFF7CFFF04EB84014FF67F
:10390000FF7202EA810000F067FD3946DF4801F0EE
:1039100062FE10B14FF0000806E00A2000F05CFDE6
:10392000681EC5B2002DD8D100BF4046BDE8F08763
:103930002DE9F04106460F4614464FF001080525D3
:103940001CE04FF48061D14801F02EFE0020D049E8
:1039500008603046FFF7B1FFC4EBC40188B200F045
:103960003BFD3946C94801F036FE10B14FF0000862
:1039700006E00A2000F030FD681EC5B2002DE0D13F
:1039800000BF4046BDE8F08110B56422C1A1C2A0CD
:10399000FFF79AFF38B16422BEA1BFA0FFF794FFE2
:1039A00008B1FF2010BD4FF4C872BDA1BEA0FFF743
:1039B0008BFF08B1FE20F5E74FF4C872BDA1BEA091
:1039C000FFF782FF88B1BFA1B04801F004FE60B9E3
:1039D000C822B0A1BCA0FFF777FF20B9BD48AB4912
:1039E000B1F80F100180FD20DCE70020DAE710B508
:1039F000FFF7CAFF044634B1FD2C13D0FE2C0CD0C7
:103A0000FF2C1CD104E00F21B3A0FFF74EFF17E0FD
:103A10001B21B5A0FFF749FF12E00D21B9A0FFF768
:103A200044FF0DE01021BBA0FFF73FFF0C21BEA01B
:103A3000FFF73BFF0221A748FFF737FF00E000BF79
:103A400000BF204610BD10B586B004462246BAA17C
:103A500001A802F093FBC8228EA101A8FFF734FF52
:103A600010B1FC2006B010BD0020FBE730B58BB0D4
:103A700004460D462246B3A101A802F07FFB642252
:103A800084A1B4A0FFF720FF10B1FA200BB030BD25
:103A9000642280A1B2A0FFF717FF08B1F920F5E773
:103AA00064227CA1B3A0FFF70FFF08B1F820EDE777
:103AB000642278A1B2A0FFF707FF08B1F720E5E77D
:103AC0006422B5A101A8FFF7FFFE08B1F620DDE7EB
:103AD0002946B2A000F0DDFE1A20FFF7EEFE00201E
:103AE000D4E710B564226BA1ADA0FFF7EDFE08B1DD
:103AF000012010BD0020FCE710B5642265A166A07E
:103B0000FFF7E2FE38B1642262A163A0FFF7DCFE9A
:103B100008B1012010BDC82261A163A0FFF7D4FE47
:103B200008B10220F6E7C82262A163A0FFF7CCFE2D
:103B300060B1642257A164A0FFF7C6FE20B96548B2
:103B40005249B1F80F1001800320E3E70020E1E7BC
:103B50002DE9F04705464FF496724EA194A0FFF769
:103B6000B3FE00285FD196A1484801F034FD80469D
:103B7000B8F1000F01D0012000E00020002866D03D
:103B800044A1404601F027FD04460CB1012000E0AD
:103B9000002000285BD0002020708CA1404601F05E
:103BA00047FD044689A1002001F042FD0446302073
:103BB000287086A1002001F03BFD0446224684A126
:103BC000681C02F0DBFA81A1002001F031FD0446FF
:103BD000284601F01CFD00EB050A22467CA1504658
:103BE00002F0CCFA79A1002001F022FD044628461B
:103BF00001F00DFD00EB050A224676A1504602F0C9
:103C0000BDFA2078312801D1002620E0642274A179
:103C100076A0FFF759FE20B164221EA160A0FFF735
:103C200053FE012613E075A25CA1284602F0A6FA15
:103C30004FF00109052704E0FFF75EFF8146781E7B
:103C4000C7B2B9F1000F01D0002FF5D102263046DE
:103C5000BDE8F08770B50525D5E04FF480610B48CD
:103C600001F0A2FC00200A4908600BA000F011FE40
:103C70004FF4FA7000F0B0FB06A1044801F0ABFC71
:103C800000B1C3E0BEE0000000380140C4090020DC
:103C9000400100204F4B000041540D0A000000007D
:103CA000524541445900000041542B4350494E3F76
:103CB0000D0A0000302C310041542B435245473F40
:103CC0000D0A0000302C350041542B4353510D0A8E
:103CD000000000001E01002047534DC4A3BFE9D7D8
:103CE000D4BCECB3C9B9A600D3EB47534DC4A3BFB2
:103CF000E9CEB4CDA8D1B6B3C9B9A6A3ACC7EBB5CC
:103D0000C8B4FD00C3BBBCECB2E2B5BD53494DBF66
:103D1000A8000000D7A2B2E1CDF8C2E7D6D0A1A397
:103D2000A1A3A1A300000000B5B1C7B0D0C5BAC51A
:103D3000D6B5A3BA0000000041544425733B0D0AD8
:103D40000000000041542B434D47533D2225732270
:103D50000D0A000041542B434D47463D310D0A00EA
:103D600041542B435343533D2255435332220D0AB2
:103D70000000000041542B435343413F0D0A000013
:103D800041542B43534D503D31372C3136372C3075
:103D90002C32350D0A0000003E00000025730000A3
:103DA00041542B43474E535057523D310D0A0000AA
:103DB00041542B43474E53494E460D0A0000000024
:103DC0002B43474E53494E463A0000002C0000005A
:103DD0002C2573002C25732C30303031000000006E
:103DE0002B43474E535057523A20310041542B43F6
:103DF000474E535057523F0D0A000000302C302CD4
:103E0000302C30006D1E002D7FF427AF00BFD2484C
:103E1000FEF711FE05251DE04FF48061CE4801F04C
:103E2000C3FB0020CD490860AFF2741000F031FDF3
:103E30004FF4FA7000F0D0FA3A21C74801F0DDFBE8
:103E4000044634B12079312802D02079352800D1B8
:103E500002E06D1E002DDFD100BF70BD10B5012442
:103E60001E22AFF2D011BEA0FFF72EFD1E22AFF230
:103E7000DC11AFF22010FFF727FD00B100241E2255
:103E8000AFF2F011AFF22810FFF71EFD00B10024D1
:103E90001E22AFF20021AFF21810FFF715FD00B19E
:103EA0000024204610BDF0B593B004460D4605260B
:103EB000482101A801F078FBABA101A801F0AEFBFD
:103EC000214601A801F07BFBAAA101A801F077FB24
:103ED00001A801F09CFB0746394601A8FFF7DCFC6E
:103EE0000AE03E219C4801F088FB00B106E04FF457
:103EF000FA7000F071FA761E002EF2D100BF28464B
:103F000000F0C7FC4FF4FA7000F066FA1A20FFF7D1
:103F1000D4FC13B0F0BD70B504460D4696A0FEF774
:103F20008AFDFFF797FE97A0FEF785FDFFF796FF46
:103F300010B997A0FEF77FFD98A0FEF77CFD2946FB
:103F40002046FFF7B0FF98A0FEF775FDC82000F0EF
:103F500043FA19E01E22AFF2C421AFF20820FFF7A6
:103F6000B3FC70B91E22AFF2D42192A0FFF7ACFCD3
:103F700018B994A0FEF75FFD07E094A0FEF75BFD83
:103F800002E095A0FEF757FDE4E700BF012070BDF9
:103F900030B58DB094A1964801F01DFB30B1954924
:103FA0009548FFF7B8FF95A0FEF745FD97A190480B
:103FB00001F011FB20B1FFF794FD96A0FEF73BFD49
:103FC00097A18B4801F007FB38B16846FFF7C0FDA9
:103FD000694695A0FEF784FD00BF96A1844801F0D4
:103FE000FAFA60B1FFF77DFD8AA0FEF724FD68466E
:103FF000FFF7AEFD69468CA0FEF772FD00BF8FA1F2
:104000007B4801F0E8FAA8B13A21794801F0F5FAC5
:104010000546002407E0285D0121C1EB8401764AB2
:104020005054601CC4B20B2CF5DD734985A0FEF71B
:1040300057FD00BF0DB030BD10B50A22AFF2AC3154
:10404000AFF2AC30FFF740FC08B1002010BD0A22EF
:10405000AFF2C03142A0FFF737FC08B10020F5E70E
:104060000A22AFF2D0317CA0FFF72EFC08B100206D
:10407000ECE70A22AFF2E431AFF22830FFF724FC7C
:1040800008B10020E2E74FF48061334801F08CFA78
:104090000020324908600120D8E7FEB5064600241A
:1040A000002571A12C4801F096FAD8B1642000F0E7
:1040B00093F970A1284801F08EFA04462079A0F106
:1040C00030056079302808DB6079392805DC6079B3
:1040D000303805EB850100EB4105294666A0FEF767
:1040E000FFFC01E00020FEBD002000900190029046
:1040F0002A4664A1684602F041F86846FEF79BFC38
:104100006422AFF270416846FFF7DEFB08B1002081
:10411000E9E73146104801F05EFAD0B14FF4806112
:104120000D4801F041FA00200C4908600090019010
:1041300002902A4657A1684602F020F86422AFF2A6
:10414000AC416846FFF7C0FB08B10020CBE7012077
:10415000C9E70020C7E70000C40900204001002093
:10416000415445300D0A000041542B434D47533D07
:1041700022000000220D0A00456E746572204D5326
:1041800047000000435245472046696E6973680046
:104190004D6F64652057726F6E6700004D6F6465E8
:1041A0002046696E6973680053656E642046696EC7
:1041B0006973680041542B435343533D2249524194
:1041C000220D0A00495241206F6B000049524120E4
:1041D0006572726F72000000434D47465F31206583
:1041E00072726F72000000005F4D534700000000C4
:1041F000C40800207E0000204C000020B6CCD0C5B2
:10420000B7A2CBCDCDEAB1CF000000005F4750533D
:104210004F0000004F50454E204750530000000013
:104220005F475053470000004750535F446174613B
:104230003A2573005F475053410000005F4E554DD3
:10424000533A00004E756D5365745F46696E69732D
:10425000683A25730000000041542B434E4D493D00
:10426000322C310D0A0000002B434D54493A2022D4
:10427000534D2200534D00006D7367706F733A25E4
:104280006400000041542B434D47523D25640D0A04
:104290000000000041542B434D47443D25640D0A66
:1042A0000000000008B501210420FCF7CFFB4FF40B
:1042B000C050ADF8000003208DF8020010208DF8EA
:1042C000030069462348FCF70BF9012008BD10B52F
:1042D00000244FF400611F48FCF7ADF94FF4805102
:1042E0001C48FCF7AAF91C48046803E0642000F0AD
:1042F00073F8641E002CF9DC4FF480511548FCF76C
:104300009AF94FF400711548FCF797F9012010BD98
:1043100010B500244FF400610E48FCF78EF94FF4FD
:1043200080510C48FCF787F90B48046803E06420CF
:1043300000F052F8641E002CF9DC4FF400610548CF
:10434000FCF779F94FF400710448FCF774F9012087
:1043500010BD00000008014024010020000C0140B5
:1043600010B56FF00400FCF73DF82D4800682D49AA
:10437000B0FBF1F02C4908700846007800EB4001D2
:10438000C1EBC0104FF6FF7101EAC0002749088059
:1043900010BD0146244A12784A434FF0E0235A6187
:1043A00000229A611A46126942F001021A6100BFA6
:1043B0004FF0E022106910F0010F02D010F4803F9E
:1043C000F6D04FF0E022126922F001024FF0E02314
:1043D0001A6100229A6170470146144A12884A43C2
:1043E0004FF0E0235A6100229A611A46126942F0A6
:1043F00001021A6100BF4FF0E022106910F0010FB6
:1044000002D010F4803FF6D04FF0E022126922F083
:1044100001024FF0E0231A6100229A617047000008
:104420000000002000127A00280100202A0100204C
:1044300010B501211F48FDF76AFA68B11E480088CF
:1044400040F400401C49088001211A48FDF770FA29
:1044500000211848FCF792FF10BD7FB505460C46B9
:1044600001210420FCF7FFFAADF80450ADF800403C
:104470000020ADF80600ADF8020069460D48FCF7D3
:1044800021FC012211460B48FCF793FF012109484A
:10449000FCF774FF1E208DF80C0000208DF80D0035
:1044A00002208DF80E0001208DF80F0003A8FBF705
:1044B0004EFF7FBD000800402C01002010B540F2E7
:1044C00025515748FDF7F8FBF8B15548FDF774FB47
:1044D000C4B25448008810F4004F1DD151480088E0
:1044E000B0F5C87F12DA00214F48FDF7DBF94D48DF
:1044F000008818B901214C48FCF740FF4949088859
:10450000411C484A118049490C5405E0454800883F
:1045100040F400404349088010BD10B586B0044601
:1045200001210820FCF792FA01218804FCF79BFA8C
:104530003B48FDF701FA4FF48060ADF8100003200E
:104540008DF8120018208DF8130004A93848FBF7E5
:10455000C7FF4FF40060ADF8100048208DF813003D
:1045600004A93348FBF7BCFF00940020ADF8040019
:10457000ADF80600ADF80800ADF80C000C20ADF861
:104580000A0069462648FDF71AFA01212448FDF77A
:10459000A2FA012240F225512148FDF7A8FA27206E
:1045A0008DF8140002208DF8150003208DF81600F8
:1045B00001208DF8170005A8FBF7C9FE41F61F4141
:1045C0006320FFF74AFF00201649088000211648A3
:1045D000FCF7D4FE06B010BD0FB438B505A80090A6
:1045E0001448009A049901F0DDFD00200090114864
:1045F00001F00DF885B200240DE000BF402108480D
:10460000FDF744FB0028F9D00A48015D0448FDF796
:10461000CFFA601C84B2AC42EFDB38BC5DF814FB0F
:10462000004800402C01002000080040A4010020A8
:10463000000C01403403002010B586B0044601216F
:104640000420FCF703FA01214804FCF70CFA0420CB
:10465000ADF8140018208DF8170003208DF816000F
:1046600005A94D48FBF73CFF0820ADF814000420D5
:104670008DF8170005A94848FBF732FF0194002088
:10468000ADF80800ADF80A00ADF80C00ADF8100068
:104690000C20ADF80E0001A94048FDF790F901216A
:1046A0003E48FDF718FA012240F225513B48FDF73C
:1046B0001EFA26208DF8000003208DF8010002204C
:1046C0008DF8020001208DF803006846FBF73FFEDD
:1046D00006B010BD2DE9F04107460C4615464021B5
:1046E0002E48FDF7E0FA00260CE014F8011B3846CE
:1046F000FDF75EFA00BF40213846FDF7C7FA0028F3
:10470000F9D0761CAE42F0D3BDE8F08110B5244854
:104710000168244800F048FF00202149086001207A
:104720002149087010BD10B51C49098811F00F0F00
:1047300003D01A49091D08882DE01849098811F08D
:10474000200F28D01549091D0888184A11684A1CED
:10475000164C2260164A50547B2802D10121154A7A
:10476000117014490978012915D10F4909780129D7
:1047700011D10B4A11684A1C094C2260094A505455
:104780007D2803D021460968FF2904D30021094A66
:104790001170054A117010BD00080140004400402E
:1047A00038010020C408002032010020340100201C
:1047B000C40400203001002010B586B00446012159
:1047C00044F20900FCF742F94020ADF8140018202B
:1047D0008DF8170003208DF8160005A94448FBF753
:1047E0007FFE8020ADF8140003208DF81600042011
:1047F0008DF8170005A93E48FBF772FE0121042041
:10480000FBF73DFF01940020ADF80800ADF80A0069
:10481000ADF80C00ADF810000C20ADF80E0001A9A9
:104820003448FDF7CCF801213248FDF754F9252032
:104830008DF8000000208DF801008DF802000120A5
:104840008DF803006846FBF782FD012240F22551F6
:104850002848FDF74CF906B010BD2DE9F041074698
:104860000C46154640212348FDF71DFA00260CE0B2
:1048700014F8011B3846FDF79BF900BF402138466C
:10488000FDF704FA0028F9D0761CAE42F0D3BDE85B
:10489000F0810FB438B505A800901748009A049924
:1048A00001F080FC00200090134800F0B0FE84B2BC
:1048B000224611490F48FFF7D0FF38BC5DF814FBC2
:1048C00010B540F225510B48FDF7F6F978B140F2EA
:1048D00025510848FDF71AFA0648FDF76DF9C4B2EC
:1048E00006490868411C054A116005490C5410BD71
:1048F000000C014000380140C40D002040010020A0
:10490000C40900202DE9FF4106460F46144698468B
:104910000A9D6946204600F09CFD6846FEF78BF82C
:10492000BDE8FF812DE9F04106460F461446984642
:10493000069D2046FEF77FF8BDE8F08138B50446B5
:104940002046FDF764FC0546F02010232A46782116
:1049500000900020FFF7E6FF38BDFE494979303965
:10496000FC4A1279303A02EB820201EB420188B232
:104970007047F8B500260027DFE0052F29D2DFE8D1
:1049800007F003294F779600701CC6B2F020102361
:10499000F1A2642100900020FFF7C4FFFDF7F2FAB6
:1049A00004469CB90120FDF70AFB044654B9F020E7
:1049B0001023EFA2782100900020FFF7B3FF00261C
:1049C000012706E02046FFF7B9FF02E02046FFF787
:1049D000B5FFAAE0701CC6B2F0201023EAA2642141
:1049E00000900020FFF79EFFFDF7CCFA04469CB92B
:1049F0000220FDF7E4FA044654B9F0201023E9A29E
:104A0000782100900020FFF78DFF0026022706E0A6
:104A10002046FFF793FF02E02046FFF78FFF84E078
:104A2000F0201023E4A2642100900020FFF77AFF19
:104A3000FDF7E8FA04464CB9F0201023E5A27821EE
:104A400000900020FFF76EFF03270CE0F0201023FA
:104A5000E7A2642100900020FFF764FF2046FFF7E3
:104A60006DFF002600274FF47A70FFF7B5FC5CE07D
:104A7000F0201023E6A2642100900020FFF752FFEF
:104A8000FDF725FB04464CB9F0201023E8A278215D
:104A900000900020FFF746FF042703E00027204690
:104AA000FFF74CFF4FF47A70FFF796FC3DE0F020E3
:104AB0001023E7A2642100900020FFF733FFF020CD
:104AC0001023EBA2782100900020FFF72BFF00BFFE
:104AD000FFF743FF0546B5F5967FF9DA2946022030
:104AE000FDF712FB0446DCB9F0201023E4A2782184
:104AF00000900020FFF716FFE848FDF787FE102022
:104B00000090E7480088E5490988421A03235021AC
:104B10000846FFF7F7FE40F2DC50FFF75DFCF8BDFA
:104B200000272046FFF70AFF00BF00BF4FF4487080
:104B3000FFF752FC052E00D100E01EE700BF00BFCA
:104B4000EDE77CB50546FDF71DFA0446002C29D19A
:104B50000120FDF734FA0446ECB901AB4FF496722C
:104B600000210120FDF70AFE044684B9F02010233D
:104B7000CCA2642100900020FFF7D4FEBDF80630DF
:104B8000BDF80420CEA1284601F0F8FA06E0204640
:104B9000FFF7D4FE02E02046FFF7D0FE4FF47A7014
:104BA000FFF71AFC7CBD38B5F0201023CBA264219E
:104BB00000900020FFF7B6FEF0201023CCA2782151
:104BC00000900020FFF7AEFEF0201023A8A28C2159
:104BD00000900020FFF7A6FE3220FFF7FDFBFFF755
:104BE000BCFE0546A5F57F40FF3803D1C7A001F004
:104BF000B5FA0BE0B5F57F4F03D1FDF7EBFA0446AC
:104C000004E001212846FDF7AFFA044644B9F0203C
:104C10001023C0A28C2100900020FFF783FE02E049
:104C20002046FFF78BFE40F2DC50FFF7D5FB9B4898
:104C3000FDF7ECFD102000909948008897490988FD
:104C4000421A032350210846FFF75CFE38BD00B529
:104C500089B0B848006800B301A8FFF772FFB6A199
:104C600001A800F0B8FC48B1B6A0FDF7E4FE0120B1
:104C7000B84908600020B84908700EE0B6480078CE
:104C8000401CB549087008460078042805D100206A
:104C90000870B249B248FFF73EF9AE48006809B063
:104CA00000BD38B5FDF7D6F817E0F0201023ADA20F
:104CB000282100900020FFF735FE4FF47A70FFF7AF
:104CC0008BFBF0201023AEA2282100900020FFF7DC
:104CD00029FE4FF47A70FFF77FFBB048FDF7CCFD5B
:104CE0000028E2D1F0201023ADA22821009000205E
:104CF000FFF718FE6948FDF789FD044614B1204608
:104D0000FFF71CFE6648FDF738FB04464CB96448C3
:104D100082780088614B1B88C11AA6A0FDF7E0FECF
:104D200002E02046FFF70AFE38BD10B5A8A10948E9
:104D300000F051FC08B1FFF71CFEA7A1054800F0E8
:104D40004AFC08B1FFF72FFFA5A1024800F043FC81
:104D50004CE10000C4080020506C65617320746F42
:104D60007563682066696E676572210A000000003D
:104D700046696E6765727072696E7420636F7272D5
:104D80006563740A00000000506C65617320746FE5
:104D90007563682066696E67657220616761696E18
:104DA0002100000046696E6765727072696E74203A
:104DB000636F727265637400436F6D70617265201A
:104DC00074776963652066696E6765727072696E73
:104DD0007400000054776963652066696E676572C8
:104DE0007072696E74206172652073616D65000078
:104DF000436F6D70617265206661696C2C706C65C3
:104E0000617320746F75636820616761696E21004A
:104E100047656E65726174652066696E676572705C
:104E200072696E742074656D706C61746500000049
:104E300047656E65726174652066696E676572703C
:104E400072696E742073756363657373000000008C
:104E5000496E7470757420494420616E64207361DA
:104E60007665207769746820454E544552210000CC
:104E7000303D3C204944203C3D323939000000009F
:104E80004164642066696E6765727072696E742031
:104E90007375636365737321212100005001002045
:104EA000C40F00205365617263682066696E676590
:104EB000727072696E74207375636365737300003A
:104EC0004D617463682049443A256420204D617423
:104ED00063682073636F72653A25640044656C658E
:104EE00074652066696E6765727072696E74000021
:104EF000496E70757420494420616E6420746F752A
:104F0000636820456E7465722100000048656C6C12
:104F10006F0A000044656C6574652066696E67659C
:104F2000727072696E742073756363657373212187
:104F300021000000180121424D617463682049443A
:104F4000000000004765742046525F52696768742C
:104F5000000000004C01002048010020E200002079
:104F60004C00002043616E6E6F7420636F6E6E653F
:104F7000637420776974682041533630382100000B
:104F800054727920746F20636F6E6E656374206154
:104F90006761696E2E2E2E2E000000002800002072
:104FA000436F6E6E656374207375636365737321FD
:104FB0000000000052656D61696E4E756D3A2564A2
:104FC000202020204C6576656C3A256400000000A6
:104FD0005F416464000000005F44656C00000000F5
:104FE0005F52494748545F474554000030B10120A3
:104FF00008490860AFF2B400FDF71DFD06A109489D
:1050000000F0E9FA28B100200249086006A0FDF787
:1050100012FD10BD4C0100205F52494748545F4CBF
:105020004F535400C408002046525F4C6F73745FA6
:1050300052696768742CBDE2B3FDD6B8CEC6C8A865
:10504000CFDE000010B512A1124800F0C4FA08B17A
:10505000FDF766FE10A10F4800F0BDFA08B1FFF79A
:1050600064FE0EA10B4800F0B6FA08B100F05DF83E
:105070000CA1084800F0AFFA08B1FEF789FF0BA1B8
:10508000044800F0A8FA08B100F0D5F810BD0000FF
:105090004C454400C408002046525F004556525F0C
:1050A0000000000053494D5F000000004C6F636B2F
:1050B0000000000010B5FDF72CFFFDF7C9FF10BD83
:1050C0001CB56846FDF775FF9DF803209DF802109A
:1050D00022A0FDF705FD9DF801209DF8001022A0FB
:1050E000FDF7FEFC1CBD2DE9F04387B004AA05A91D
:1050F00006A8FEF7CBF9049800F05FFD04460D46C4
:10510000059800F05AFD06460F46069800F055FD3A
:10511000804642460B4618A0CDE90067CDE902451E
:10512000FDF7DEFC07B0BDE8F08310B51CA11D48FB
:1051300000F051FA08B1FFF7C3FF1BA1194800F0B6
:105140004AFA08B1FFF7CFFF18A1164800F043FA5A
:1051500018B1FFF7B5FFFFF7C6FF10BD54656D70BE
:105160003A25642E2564000048756D696469747978
:105170003A25642E2564000050726573733A252E1B
:1051800032662C424D505F54656D703A252E326662
:105190002C4865696768743A252E32660000000065
:1051A000545F4800C4080020505F4800414C4C0048
:1051B00010B53E48FEF771FF08B1FFF788F83C488C
:1051C0000068012804D1FFF782F800203849086000
:1051D00010BD10B500243A21364800F00EFA0446FE
:1051E000641C204600F046FA33490860084601680E
:1051F00032A0FDF775FC012010BD70B5002400251C
:1052000014212A4800F0D0F9284D3A21294800F00D
:10521000F4F90446641C03E0207828706D1C641CBB
:1052200020787D28F8D100202870204928A0FDF79B
:1052300057FC012070BD10B528A11E4800F0CBF925
:1052400008B1FFF744F827A11A4800F0C4F908B1E3
:10525000FFF75EF825A1174800F0BDF978B125A148
:10526000144800F0B8F908B1FFF7C7FF24A11148AE
:1052700000F0B1F918B10D4915A0FDF731FC23A1DB
:105280000C4800F0A8F980B122A10A4800F0A3F967
:1052900008B1FFF79EFF22A1064800F09CF920B15B
:1052A0000548016805A0FDF71BFC10BD5201002058
:1052B0004C010020C4080020240100204C6F636BC7
:1052C0005F44656C61795F54696D653A25640000DF
:1052D0004C6F636B5F436D643A2573005F4F70657D
:1052E0006E0000005F436C6F736500005F436D6488
:1052F0005F0000005F436D645F5365743A00000017
:105300005F436D645F566965770000005F54696DA7
:10531000655F00005F54696D655F5365743A000016
:105320005F54696D655F5669657700002DE9FE4F32
:1053300082460D46D14600240027A0460020019059
:105340000021484600F07CFC03D20120019089F046
:1053500000490021484600F07DFC0BD8484600F08B
:1053600013FC0646304600F0E8FB4946009000F08A
:10537000E3F983462EB9302028702E20687001246E
:1053800025E00BE00A2096FBF0F100FB11603030C5
:1053900028550A2096FBF0F6601CC4B2002EF1DC02
:1053A000601EC4B2002709E0E85D0290E01B285CA3
:1053B000E855E11B02986854781CC7B204EBD4711D
:1053C000B7EB610FF0DD601CC4B22E202855601CC5
:1053D000C4B25949584600F0B2F9009000F0D4FB2D
:1053E0000A2190FBF1F201FB12003030C2B22046DC
:1053F000611CCCB22A545149584600F0A0F90090E3
:1054000000F0C2FB0A2190FBF1F201FB12003030E8
:10541000C2B22046611CCCB22A540198012813D193
:10542000601C00F0FF0808E0A8F10100285C05F806
:105430000800A8F1010000F0FF08B8F1000FF3DC4C
:105440002D202870601CC4B2002028552046BDE8DD
:10545000FE8FF0B5024600200024002A01DA012563
:1054600052422AB930270F7000274F70012010E0F8
:105470000BE00A2792FBF7FC07FB1C2730370F5481
:105480000A2792FBF7F2471CF8B2002AF1DC471E0C
:10549000F8B2002307E0CE5CC71ACF5DCF54C71A1D
:1054A000CE555F1CFBB200EBD07CB3EB6C0FF2DD92
:1054B000471CF8B200270F54012D0ED1471CFCB237
:1054C00004E0671ECF5D0F55671EFCB2002CF8DCB0
:1054D0002D270F70471CF8B20025F0BD70B50246AD
:1054E000002000232AB930250D7000254D700120C1
:1054F00010E00BE00A25B2FBF5F605FB162530356A
:105500000D540A25B2FBF5F2451CE8B2002AF1D190
:1055100000250D54002309E00C5C451EED1A4D5D7D
:10552000CD54451EED1A4C555D1CEBB200EBD07608
:10553000B3EB660FF0DB70BD000020410000C842F5
:105540002DE9F04100242546002905DA0124002731
:10555000D0EB070067EB0101002B05DA0027D2EB47
:105560000702012567EB030300F094FB86460E4615
:1055700017469C46AC4204D00025D0EB050E65EBE7
:10558000010624B10020D2EB000760EB030C70464B
:1055900031463A466346BDE8F081D2B201E000F8F8
:1055A000012B491EFBD270470022F6E710B51346C7
:1055B0000A4604461946FFF7F0FF204610BD421E7A
:1055C00012F8013F002BFBD111F8013B02F8013B1F
:1055D000002BF9D1704730B505462A460B4612F824
:1055E000010B13F8014B08B1A042F8D01CB1002800
:1055F00002D06D1CF1E7284630BDCAB2401E10F83B
:10560000011F8A4202D00029F9D100207047421CB4
:1056100010F8011B0029FBD1801A7047034611F8CE
:10562000012B00F8012B002AF9D118467047000021
:1056300070B50F4D00B92868002412E00A4602E058
:105640009E4203D0521C1378002BF9D1DAB22243C8
:1056500005D02BB124B1002100F8011B04E0044661
:10566000401C0678002EE9D12860204670BD00005D
:105670006801002070B5064600F0BAFD04680546D2
:105680000A220021304600F057FB2C6070BDF0B4B8
:1056900080EA0102D40F4200B2EB410F02D202466F
:1056A000084611464A0042D0C30DDDB2C1F3C752CD
:1056B000AD1A202D35DAC1F3160141F4000204B110
:1056C0005242C5F1200602FA06F12A411044B3EB1A
:1056D000D05F23D0C4B1012DA0EBC35009DCF0BCD6
:1056E0004FF0004202EAC35200F50000DBB200F0C6
:1056F00064BB400000F1807000EBC350A0F18070EB
:1057000040EAD170490009E0490841EAC071A0EBC4
:10571000C35000F50000400800EBC350F0BC00F09F
:1057200043BB6142012202EB4101001BF6E7F0BCE2
:10573000704781F00041AAE780F00040A7E780EAC7
:10574000010210B502F00043400026D04A0023D0E9
:105750004FEA106101EB1261C0F35600C2F356022A
:1057600040F4000042F40002A0FB0220A1F17F01FE
:105770004FEA0040140401D000F1010050EA124049
:1057800001D44000491EC2B20C0604EBD010401CEC
:105790004008802A02D003E0002010BD20F0010064
:1057A000002900DA0020184310BD30B480EA01025D
:1057B00002F0004530F0004221F0004015D0A0B1C9
:1057C000C0F3C753C2F3C754C2F31601C0F31600A7
:1057D000E41A41F4000140F400027D34914201D307
:1057E000641C00E04900002C02DA30BC0020704745
:1057F0004FF400000023914201D3891A034340086B
:105800004FEA4101F7D151B1914202D14FF000412D
:1058100005E002D24FF0010101E06FF0010103EB5E
:10582000C450284430BC00F0BFBA2DE9FE4F80467A
:1058300081EA0300C00F0C46009021F0004123F0E4
:105840000045B8EB0200A94105D2404621469046EA
:105850001C460B46024623F00040104304D140464C
:10586000214603B0BDE8F08F270DC7F30A00C3F34C
:105870000A510290401A0190402866DAC3F31300DF
:1058800040F4801B0098924620B10023D2EB030A1B
:1058900063EB0B0B01985946C0F14002504600F0F3
:1058A0002AFA06460D4650465946019A00F032FA49
:1058B00010EB08006141002487EA115284EAE77383
:1058C0001A433BD0009A3AB3019A012A4FEA075291
:1058D00010DC001B61EB02014FF0004202EA0752AC
:1058E000CDE90042001C41F5801132462B4600F004
:1058F0009EFAB6E7001B61EB0201001C41F5801324
:1059000000185B412018A2F5001747EB030140EA9D
:10591000D570B6196D4111E06D084FEA360645EABB
:10592000C0754FEA0752001B61EB0201001C41F5F4
:10593000801149084FEA30000019514132462B4688
:1059400003B0BDE8F04F00F065BA009801224000B6
:105950000023D0EB020263EBE073009821464FEA8C
:10596000E074B8EB000061EB0401E9E783F0004369
:105970005BE781F0004158E72DE9FE4F81EA03041F
:1059800004F0004421F0004100944FF0000B23F09C
:10599000004350EA010402D052EA030404D100207B
:1059A000014603B0BDE8F08FC3F30A54C1F30A55B2
:1059B0002C44A4F2F3340194A0FB0254C1F313016C
:1059C00041F48011C3F3130343F4801301FB024439
:1059D00000FB034E840A970A44EA815447EA83573E
:1059E000A4FB076802958D0A05FB07854FEA932CF7
:1059F00004FB0C542705029D4FEA065847EA163768
:105A0000B5EB08056EEB070C870E920E47EA81177F
:105A100042EA8312A7FB0201B6EB0B0164EB000420
:105A20002B0D43EA0C335E1844EB1C50DA4651460A
:105A3000E7FB0201C5F313044FEA0B3343EA1453A7
:105A40004FEA0432019C43EA0603A4F10C040294D9
:105A5000009CCDE900B400F0EAF9A2E72DE9F04D91
:105A600081EA030404F0004B21F0004514464FF096
:105A7000000A23F0004150EA050220D054EA010256
:105A80001DD0C5F30A570246C5F31303C1F3130033
:105A9000C1F30A5640F4801543F48013A7EB0608BF
:105AA000101BD64608F2FD3873EB050002D308F14F
:105AB000010801E092185B41B8F1000F03DA002001
:105AC0000146BDE8F08D00204FF480110646844663
:105AD0000EE0171B73EB050705D3121B63EB0503E1
